:020000040800F2
:105000001038002099510008CD6C00083B69000859
:10501000B16B0008F1600008F1800008000000009A
:105020000000000000000000000000000151000826
:10503000276300080000000045510008D97C0008E3
:10504000B3510008B3510008B3510008B351000830
:10505000B3510008B3510008B3510008B351000820
:10506000B3510008B3510008B3510008B351000810
:10507000B3510008B3510008B35100086162000841
:10508000B3510008B3510008B3510008B3510008F0
:10509000B3510008B3510008B3510008B3510008E0
:1050A000B3510008B3510008B3510008B3510008D0
:1050B000B3510008B3510008B3510008B3510008C0
:1050C000B3510008B3510008B3510008B3510008B0
:1050D000B3510008D17E0008B3510008B351000855
:1050E000B3510008B3510008B3510008DFF80CD0E9
:1050F00000F0BCFD004800471D8D0008103800205E
:10510000224B19680868B0E8F00F80F30988BFF3F4
:105110006F8F4FF0000080F311884EF00D0E704736
:105120000000000006480068006880F3088862B646
:1051300061B6BFF34F8FBFF36F8F00DF00BF00BFBB
:1051400008ED00E0EFF30980BFF36F8F0F4B1A6893
:1051500020E9F00F106008B54FF0BF0080F3118810
:10516000BFF34F8FBFF36F8F05F0DAF84FF00000F9
:1051700080F31188BDE8084019680868B0E8F00FAE
:1051800080F30988BFF36F8F704700BF7000002065
:10519000EFF3058070470000064880470648004747
:1051A000FEE7FEE7FEE7FEE7FEE7FEE7FEE7FEE7D7
:1051B000FEE7FEE7E97C0008ED50000840EA010345
:1051C0009B0703D009E008C9121F08C0042AFAD2BD
:1051D00003E011F8013B00F8013B521EF9D2704781
:1051E000D2B201E000F8012B491EFBD27047002229
:1051F000F6E710B513460A4604461946FFF7F0FFD6
:10520000204610BD421E12F8013F002BFBD111F8C1
:10521000013B02F8013B002BF9D1704730B5054640
:105220002A460B4612F8010B13F8014B08B1A042B5
:10523000F8D01CB1002802D06D1CF1E7284630BD23
:1052400010B5044604E00B7800F8013B03B1491C9B
:10525000521EF8D2204610BDCAB2401E10F8011FDF
:105260008A4202D00029F9D100207047421C10F870
:10527000011B0029FBD1801A704700000FB400B554
:105280008DB010A909900B9000914FF0FF300A905B
:1052900000200C9005480690054807906A4609A82A
:1052A0000F9900F0B9FB0DB05DF814FB355A0008FA
:1052B000535A00082DE9FF5FD2E901A74FF000081B
:1052C000916999461446DDF838B0464601988847FA
:1052D000054659EA0B0005D009E0A169761C019842
:1052E00088470546216A284688470028F5D1681C6A
:1052F00003D05FEACA7005D015E04FF0FF3004B06C
:10530000BDE8F09F2068011D2160D0F800800AE010
:105310005FEACA7001D108F8015BA169761C7F1EA3
:10532000019888470546002F1ADD681C18D0B9F18E
:10533000000F0DD0E81705EBD060421120F01F00E0
:1053400059F822102A1A012090400142E0D107E0CA
:10535000BBF1000FDCD1216A284688470028D7D04E
:10536000E16901988847BBF1000F07D1002E05DDE8
:105370005FEACA7002D1002188F80010A068B84224
:1053800003DDBBF1000F03D017B16FF00100B6E7EA
:105390003046B4E72DE9F05F93460F468046044659
:1053A000002602F0EFFFD0F80090824614F8015B6F
:1053B0002DB100F01DFB0068405DC007F6D12B2D1C
:1053C00002D02D2D1AD0641E0021CAF800105A46B2
:1053D0003946204600F04EFB014627B13868A0420E
:1053E00001D1C7F80080DAF80000022809D0CAF815
:1053F0000090700505D54842BDE8F09F46F48066F0
:10540000E2E70846F8E7F0B480EA0102D40F420070
:10541000B2EB410F02D20246084611464A0042D082
:10542000C30DDDB2C1F3C752AD1A202D35DAC1F379
:10543000160141F4000204B15242C5F1200602FAFD
:1054400006F12A411044B3EBD05F23D0C4B1012D43
:10545000A0EBC35009DCF0BC4FF0004202EAC3529B
:10546000DBB200F5000000F05DBB400000F1807091
:1054700000EBC350A0F1807040EAD170490009E010
:10548000490841EAC071A0EBC35000F50000400894
:1054900000EBC350F0BC00F03CBB6142012202EBC8
:1054A0004101001BF6E7F0BC704781F00041AAE71C
:1054B00080F00040A7E780EA010210B502F0004347
:1054C000400022D04A001FD0010E01EB1261C0F350
:1054D0005600C2F3560240F4000042F40002A0FB62
:1054E000022000047F39140400D0401C50EA12400E
:1054F00001D44000491EC2B20C0604EBD010401C7F
:105500004008802A02D003E0002010BD20F00100F6
:10551000002900DA0020184310BD30B480EA0102EF
:1055200002F0004530F0004221F0004013D090B16D
:10553000C30DD40DC2F31601C0F31600E41A41F4F2
:10554000000140F400027D34914201D3641C00E06C
:105550004900002C02DA30BC002070474FF40000F4
:105560000023914201D3891A034340084FEA4101C5
:10557000F7D151B1914202D14FF0004105E002D282
:105580004FF0010101E06FF0010103EBC45028442A
:1055900030BC00F0BEBA2DE9FE4F804681EA030020
:1055A000C00F0C46009021F0004123F00045B8EBFD
:1055B0000200A94105D24046214690461C460B46B2
:1055C000024623F00040104347D0270DC7F30A00DE
:1055D000C3F30A510290401A019040286BDAC3F3DA
:1055E000130040F4801B0098924620B10023D2EBB8
:1055F000030A63EB0B0B01985946C0F14002504679
:1056000000F0C5F906460D4650465946019A00F08D
:10561000DDF910EB08006141002487EA115284EAA9
:10562000E7731A4340D0009A62B3019A012A4FEA05
:10563000075215DC001B61EB02014FF0004202EA49
:105640000752CDE90042001C41F5801132462B463D
:1056500000F0A5FA03B0BDE8F08F40462146F9E717
:10566000001B61EB0201001C41F5801300185B4137
:105670002018A2F5001747EB030140EAD570B619D0
:105680006D4111E06D084FEA360645EAC0754FEAF4
:105690000752001B61EB0201001C41F58011490813
:1056A0004FEA30000019514132462B4603B0BDE8A5
:1056B000F04F00F065BA0098012240000023D0EBC3
:1056C000020263EBE073009821464FEAE074B8EB06
:1056D000000061EB0401E9E783F000435BE781F040
:1056E000004158E72DE9FE4F81EA030404F000442D
:1056F00021F0004100944FF0000B23F0004350EAEA
:1057000001045ED052EA03045BD0C3F30A54C1F330
:105710000A552C44A4F2F3340194A0FB0254C1F3C3
:10572000130141F48011C3F3130343F4801301FB0D
:10573000024400FB034E840A970A44EA815447EA74
:105740008357A4FB076802958D0A05FB07854FEA7E
:10575000932C04FB0C542705029D4FEA065847EA98
:105760001637B5EB08056EEB070C870E920E47EA6D
:10577000811742EA8312A7FB0201B6EB0B0164EB2F
:1057800000042B0D43EA0C335E1844EB1C50DA4640
:105790005146E7FB0201C5F313044FEA0B3343EA1A
:1057A00014534FEA0432019C43EA0603A4F10C04AB
:1057B0000294009CCDE900B400F0F1F903B0BDE81B
:1057C000F08F00200146F9E72DE9F04D81EA03044E
:1057D00004F0004B21F0004514464FF0000A23F07E
:1057E000004150EA050220D054EA01021DD0C5F361
:1057F0000A570246C5F31303C1F31300C1F30A5657
:1058000040F4801543F48013A7EB0608101BD6461E
:1058100008F2FD3873EB050002D308F1010801E03E
:1058200092185B41B8F1000F03DA00200146BDE891
:10583000F08D00204FF48011064684460EE0171BC1
:1058400073EB050705D3121B63EB050306434CEA14
:10585000010C49084FEA300092185B4150EA0107F9
:10586000EDD152EA030012D082EA040083EA050176
:10587000084305D0101BAB4106D20122002306E0ED
:1058800000224FF0004302E06FF0010253101AEBC8
:1058900006004CEB085110EB0A0041EB0B01BDE890
:1058A000F04D00F06DB920F00040C10DC0F31600BE
:1058B00040F400007F2901DA00207047962903DCBC
:1058C000C1F19601C8407047963988407047000082
:1058D00030B5041E71F1000404DB4FF00044404277
:1058E00064EB0101141E73F1000405DB1C464FF04C
:1058F0000043524263EB0403994208BF904230BD1B
:1059000030B50B46014600202022012409E021FA8F
:1059100002F59D4205D303FA02F5491B04FA02F58C
:105920002844151EA2F10102F1DC30BD2DE9F05F23
:105930000546002092469B468846064681464024FE
:105940001BE0284641464746224600F02FF85346C2
:105950005A46C01A914110D311461846224600F00B
:1059600016F82D1A67EB01084F4622460120002148
:1059700000F00DF817EB00094E41201EA4F10104C0
:10598000DFDC484631462A464346BDE8F09F202AE0
:1059900004DB203A00FA02F1002070479140C2F186
:1059A000200320FA03F3194390407047202A04DBB8
:1059B000203A21FA02F00021704721FA02F3D04088
:1059C000C2F120029140084319467047202A06DBA5
:1059D000CB17203A41FA02F043EAE07306E041FABD
:1059E00002F3D040C2F120029140084319467047AB
:1059F000004870474CBD000810B50446FFF7F8FF9B
:105A00000068005D00F0010010BD00000268114454
:105A10001378016018467047D16004495161044908
:105A2000116200211161114600F040B90D5A0008C1
:105A3000F9590008426842B1016811F8013B23B1ED
:105A4000521EC0E90012184670470121C160881E2D
:105A5000704742685AB1C368016843B983688B4292
:105A600005D0491E521CC0E90012002070474FF0BB
:105A7000FF3070472DE9F05F824600780027154619
:105A80008B460AF10104B946302801D09DB113E0DC
:105A900014F8010B0127782803D0582801D045B10C
:105AA0000AE00DB1102D07D10027102514F8010BC5
:105AB00002E0082500E00A250026B0460EE005FBBE
:105AC000080005FB06F1012701EB10461FFA80F8DC
:105AD000B6F5803F00D3B94614F8010B294600F013
:105AE000D7F80028EBDABBF1000F05D00FB1641E28
:105AF00000E05446CBF80040B9F1000F06D002F0A8
:105B000041FC02210160C81EBDE8F09F48EA064042
:105B1000FAE70029A8BF7047401C490008BF20F0E1
:105B20000100704710B4B0FA80FC00FA0CF050EAA3
:105B3000010404BF10BC704749B1CCF1200421FA24
:105B400004F411FA0CF118BF012121430843A3EB1F
:105B50000C01CB1D4FEA00614FEA102042BF00202C
:105B600010BC704700EBC35010440029A4BF10BC08
:105B70007047401C490008BF20F0010010BC70476E
:105B800010B5141E73F1000408DA401C41F1000145
:105B900092185B411A4301D120F0010010BD2DE99C
:105BA000F04D92469B4611B1B1FA81F202E0B0FA93
:105BB00080F220329046FFF7EAFE04460F4640EAA4
:105BC0000A0041EA0B0153465A46084313D01146D6
:105BD00053EA010019D0C8F140025046FFF7E6FE33
:105BE00005460E46504659464246FFF7D0FE08434A
:105BF00005D0012004E020463946BDE8F08D0020A4
:105C0000054346EAE0762C4337430A986305E40AE5
:105C1000A0EB08000022FD0A44EA47540A3002D5EE
:105C200000200146E9E7010510196941DDE9084551
:105C300000196941BDE8F04DA2E7C1F30A52C1F372
:105C4000130140F2FF3341F480119A4202DA00203E
:105C50000146704740F233439A42A2F2334202DCDB
:105C60005242FFF7A3BEFFF792BE0000064C074D5D
:105C700006E0E06840F0010394E80700984710341C
:105C8000AC42F6D3FFF736FA9CC20008BCC200084B
:105C90003A2800D2303820F02002412A01D3A2F164
:105CA0003700884201D34FF0FF3070472DE9F34FA2
:105CB0008BB04FF0000801F10C000C464FF0010BC7
:105CC00046460DF1080A019062690121019890474A
:105CD000051E2DD0252D2CD0216A8847C0B16269C0
:105CE000012101989047216A88470028F7D1411E79
:105CF00062690198904700E0761CA1690B9888477B
:105D0000216A88470028F7D1E1690B988847DBE7CB
:105D1000A1690B9888470746A84201D1761CD3E7B2
:105D2000E1690B9888477F1C02D1B8F1000F6FD052
:105D300046E1002762693D463946019890472A2886
:105D400004D162690121019890470125DFF884920E
:105D50006269012101989047A0F130010A290AD215
:105D60004F45E5DC07EB870100EB4107303FDFD40F
:105D700045F01005ECE7E90601D46FF000476C2808
:105D80000AD04C2814D0682815D06A280DD0742861
:105D90001CD07A281AD01DE0626901210198904731
:105DA0006C2802D045F0040514E045F002050DE032
:105DB00045F020050AE062690121019890476828B2
:105DC00002D045F0080505E045F40065626901214F
:105DD00001989047C4E9015765283DD019DC58283F
:105DE0007AD00CDC452837D004DC252826D0412881
:105DF00031D131E046282FD047282CD12CE05B2828
:105E000077D0612828D063287CD0642823D15AE039
:105E1000D0E06F2848D008DC66281DD067281BD04A
:105E2000692821D06E2816D127E0702845D0732824
:105E300068D0752847D078280DD14DE0A1690B981E
:105E40008847054625283FF469AFE1690B988847E4
:105E50006D1C3FF46AAFB3E023466A466FF0010061
:105E60000B99AFF300809EE045F040006060A8070A
:105E700023464FF0000236D43EE0E8077FF447AFF8
:105E80002068011D21600068290501D506701BE707
:105E9000290701D5068017E7A90703D5F117C0E93F
:105EA000006111E706600FE745F040006060A80759
:105EB00023464FF0080216D41EE040F60E0125EAF4
:105EC0000100606016E045F040006060A8072346CE
:105ED0004FF00A0207D40FE045F040006060A807C9
:105EE00008D5234610226FF001000B99AFF3008014
:105EF00059E007E0234610226FF001000B99AFF341
:105F0000008050E04FF000094F464B46632802D016
:105F10005B2806D040E0E80601D40120A0600127FC
:105F20003AE062690121019890475E2805D14FF05F
:105F300001096269494601989047216939B90021F0
:105F40000A46534643F82120491C0829FADBB0B31E
:105F5000216969B9C11700EBD16253110AEB8301C2
:105F600022F01F02821A01200B68904003430B604D
:105F700062690121019890475D28E8D1B9F1000FCD
:105F800009D00020514651F82020D24341F820206A
:105F9000401C0828F7DB02AB224600976FF0010097
:105FA0000B99FFF787F900280CDA401C08D1BBF1E8
:105FB000000F05D04FF0FF300DB0BDE8F08FFFE7C8
:105FC0004046F9E7E90701D108F1010806444FF01E
:105FD000000B79E6CCCCCC0CC6B09C211FA8FFF7F7
:105FE00006F900201D901E904C210AA8FFF7FFF82B
:105FF000202102A8FFF7FBF863E04FF0FF320121F8
:10600000002003F02BFD84B228E0002202A92D48D5
:10601000006804F089FB012820D10AA8FFF726F9BF
:10602000C0F14A0502A8FFF721F9A8420ED202A941
:106030000AA8FFF7E7F8012C03DD23A10AA8FFF760
:10604000E1F8202102A8FFF7D2F804E01FA10AA876
:10605000FFF7D8F804E0601E84B200BF002CD4DC47
:1060600000BF1B4828B31DAA1AA1FFF707F9012892
:106070001FD103F087FE0AA81DAB1A4A9C2100908D
:106080001FA802F067F903F08FFE40F6B8311648FA
:10609000006804F0CBFB01280BD1002213A11FA83C
:1060A00000F02EFA00231A4619460F48006804F043
:1060B0006BFA4C210AA8FFF79AF8142003F094FF1A
:1060C00000BF9AE724000020200000002E2E2E00A2
:1060D000003000207B226964223A2225355B5E2253
:1060E0005D00000050BD0008280000204F4B00005C
:1060F00000BFFEE710B5002404E0601CC4B201201C
:1061000002F0C4FD4FF400610B4800F004FC0128CC
:1061100001D1642CF1DB642C01DB002010BD00BF39
:106120004FF40061044800F0F6FB0028F8D0572037
:1061300002F0ACFD0120F1E7000C014008B501219F
:10614000082001F027FA4FF40060ADF8000010209D
:106150008DF8030003208DF802006946064800F020
:106160004FFB4FF40061044800F0E0FB4FF47A70FD
:1061700002F080FD08BD0000000C014008B54FF49E
:106180000060ADF8000010208DF8030003208DF8AA
:10619000020069460F4800F033FB4FF400610D48E0
:1061A00000F0C2FB142002F065FD4FF400610948C5
:1061B00000F0BCFB1E2002F069FD4FF40060ADF85A
:1061C000000048208DF803006946024800F018FBE3
:1061D00008BD0000000C014010B586B00446002048
:1061E000049005900290039001F05EFA012820D1FE
:1061F0001148007800901148037811A2062104A8E4
:1062000002F0A8F8104800780090104803780CA21B
:10621000062102A802F09EF804AA0DA1042001F0B4
:106220007FFC032003F0E0FE02AA0BA1042001F092
:1062300077FC06B010BD00001401002013010020FF
:1062400025642E25640000001201002011010020A9
:1062500054656D700000000048756D690000000015
:1062600010B54FF4003000F021F818B14FF40030B1
:1062700000F002F810BD000000F0805111B1034998
:10628000086001E0024948607047000004040240D1
:106290000000024021B1026842F00102026004E005
:1062A00002684FF6FE731A400260704701460020F4
:1062B000002201F0805313B1054B1A6801E0054B31
:1062C0001A6802EA01030BB1012000E000207047C8
:1062D00000040240000002401AB103680B4303604F
:1062E00002E003688B430360704710B50022026828
:1062F00047F6F0739A430C6A8B6823430C69234377
:106300004C6923438C692343CC6923434C6A234360
:106310008C6A23431A430260CB6843600B68836036
:106320004B68C36010BD70470EB50121C80201F073
:1063300031F94FF6FF70ADF804004720ADF80000CA
:106340000020ADF80600ADF802006946034801F0F0
:106350006DFD0121014801F0F7FC0EBD002C01404C
:106360001CB52BA004F050FC51E000F003FB00F042
:10637000F1FC082329A20021084600F005FF0820AF
:10638000022300902748027800212D2000F0D6FE3D
:1063900008232E220021482000F010FE08200223AE
:1063A0000090214802780021512000F0C7FE082308
:1063B0001EA21021002000F0E7FE0820022300901A
:1063C0001C48027810212D2000F0B8FE08232E2250
:1063D0001021482000F0F2FD08200223009016480A
:1063E00002781021512000F0A9FE082313A22021D9
:1063F0003F2000F0C9FE00F0DFFE04F053FC0190E6
:1064000000BF4FF4FA7101A804F014FB00BFACE721
:10641000536572766F5F5461736B000054656D70E5
:106420003A000000130100201401002048756D6936
:106430003A000000110100201201002056322E30D7
:106440000000000010B540F20A210248FEF7CFFE1E
:1064500010BD0000F62D00202DE9F04180460E46CB
:106460000024002703F08EFC2248078803F09CFCE0
:1064700021480088874204DB1F480088381A84B20C
:1064800005E01D480088C0F50070384484B2B4426D
:1064900000DD3446002C29DD174800882044B0F583
:1064A000007F16DD14480088C0F5007085B21348DF
:1064B000114A128881182A464046FEF77FFE621B69
:1064C00008EB05000D49FEF779FE601B0A490880BC
:1064D0000CE00A48084A1288811822464046FEF716
:1064E0006DFE054800882044034908802046BDE829
:1064F000F0810000F0000020F2000020F62B0020C8
:106500002DE9F04105460F461646012E20D100BF69
:10651000C824294620A001F00DFF13E040F2092114
:106520001F48FFF799FF39461D48FEF777FE20B157
:10653000FFF788FF0120BDE8F081FFF783FF0A2005
:1065400002F098FB201EA4F101018CB2E6D1DFE736
:10655000C82403F017FC29460FA001F0EBFE03F05E
:1065600023FC12E040F209210D48FFF775FF394680
:106570000B48FEF753FE18B1FFF764FF0120DAE77E
:10658000FFF760FF0A2003F02FFD201EA4F1010198
:106590008CB2E7D100BFCEE725730D0A00000000E2
:1065A000F62D002010B5012219A11AA0FFF7A8FFAF
:1065B000012217A119A0FFF7A3FF012214A11AA01D
:1065C000FFF79EFF012212A11BA0FFF799FF0122F6
:1065D0000FA12048FFF794FF01220DA11EA0FFF795
:1065E0008FFF01220AA127A0FFF78AFF012208A13D
:1065F00034A0FFF785FF012240A14248FFF780FF4A
:1066000001223EA14048FFF77BFF002010BD0000A3
:106610004F4B000041542B525354000041542B4324
:10662000574D4F44453D310041542B435744484357
:10663000503D312C3100000041542B43574A41500A
:106640003D22617878222C22686A683130303836F1
:1066500031312200FCC0000841542B4D51545443A9
:106660004F4E4E3D302C226D717474732E686563ED
:106670006C6F7564732E636F6D222C313838332C38
:106680003100000041542B4D5154545355423D307C
:106690002C22247379732F525555507653474C5101
:1066A000642F4F6E652F7468696E672F70726F70FC
:1066B000657274792F706F73742F7265706C7922A4
:1066C0002C31000041542B4D5154545355423D3010
:1066D0002C22247379732F525555507653474C51C1
:1066E000642F4F6E652F7468696E672F70726F70BC
:1066F000657274792F736574222C3100737563632E
:10670000657373001CC2000898C100081CB5002204
:106710000221084603F09FFE224908600022022160
:10672000084603F098FE2049086000221221032049
:1067300003F091FE1D4908601A48006828B11A4804
:10674000006810B11AA001F0F5FD012003F072FEFF
:106750001E49086000231A4619461C48006803F0C9
:1067600013FF03220021012003F075FE1849086081
:10677000184801231A4642F21071009016A004F046
:1067800089FD174908601748174909680023CDE9B2
:106790000010164816A10268184804F00FF903F01B
:1067A0006BFD1CBD1C0000202000002024000020E8
:1067B000E8AEBEE5A487E5B7B2E585A8E983A8E51C
:1067C000B0B1E7BBAAEFBC810D0A00002800002091
:1067D0002C000020D96100084448543131000000E9
:1067E00030000020400000203C0000203800002045
:1067F00053746172745F5461736B0000D17B000845
:106800002DE9F04102460025002600200023002447
:10681000002791F803C00CF00F0591F803C00CF0AD
:10682000100CBCF1000F03D091F802C04CEA050532
:1068300091F800C0BCF1000F31D0146800202BE0AB
:106840004FF0010C0CFA00F3B1F800C00CEA03069B
:106850009E4220D183004FF00F0C0CFA03F7BC438B
:1068600005FA03FC4CEA040491F803C0BCF1280FBC
:1068700006D14FF0010C0CFA00FCC2F814C00AE07B
:1068800091F803C0BCF1480F05D14FF0010C0CFA90
:1068900000FCC2F810C0401C0828D1D31460B1F825
:1068A00000C0BCF1FF0F34DD546800202EE000F181
:1068B000080C4FF0010808FA0CF3B1F800C00CEA1C
:1068C00003069E4221D183004FF00F0C0CFA03F710
:1068D000BC4305FA03FC4CEA040491F803C0BCF184
:1068E000280F05D100F1080C08FA0CF8C2F8148042
:1068F00091F803C0BCF1480F07D100F1080C4FF02C
:10690000010808FA0CF8C2F81080401C0828CED301
:106910005460BDE8F0810246002093680B400BB143
:10692000012000E00020704741617047016170471D
:106930000AB1016100E04161704700BFFEE700005D
:106940004CF6CC4001490860704700000030004020
:1069500010B545F2555000F021F8052000F012F86E
:1069600041F6690000F014F800F004F8FFF7E8FFC2
:1069700010BD00004AF6AA200149086070470000D7
:10698000003000400149486070470000003000407E
:1069900001498860704700000030004001490860EC
:1069A000704700000030004038B50025002414E096
:1069B0000E4850F824100EA000F0B2F801280BD1B8
:1069C000601C85B2002002230246014600900B485D
:1069D000006804F069F802E0641C022CE8DB00BFE8
:1069E00029460748006800F0A9FD38BD14000020C2
:1069F0004C696768745377697463680050000020BD
:106A00001C00002008B50121042000F0C3FD012076
:106A1000ADF8000010208DF8030003208DF802006F
:106A200069460448FFF7ECFE01210248FFF77EFFAC
:106A300008BD00000008014008B53BE0002400202C
:106A40000090421E69461C48006803F06DFE012854
:106A50002FD1FFF7F7FC9DF80000012802D0022893
:106A600014D109E000F04CF814A216A118480078DF
:106A700001F056F8C4B20AE000F04AF815A211A1DC
:106A80001348007801F04CF8C4B200E000BF00BF2A
:106A9000012C07D100231A4610A11448006803F006
:106AA00073FD06E000231A4611A11048006803F0A8
:106AB0006BFD00BFC2E700001C00002066616C7324
:106AC000650000004C6967687453776974636800F7
:106AD000F800002074727565000000004C4544E623
:106AE0009BB4E696B0E68890E58A9F0024000020DB
:106AF0004C4544E69BB4E696B0E5A4B1E8B4A500E5
:106B000010B501210148FFF711FF10BD0008014039
:106B100010B501210148FFF707FF10BD0008014033
:106B20002DE9F04105460E46002440F209211448A3
:106B3000FFF792FC13A11248FEF770FB0446E4B184
:106B40007B212046FEF788FB48B17B212046FEF7DB
:106B500083FB07460B2239461448FEF771FB2634A7
:106B600029462046FEF75AFB38B131462046FEF74B
:106B700055FB10B10120BDE8F0810020FBE70000CB
:106B8000F62D0020247379732F52555550765347B4
:106B90004C51642F4F6E652F7468696E672F707249
:106BA0006F70657274792F73657400000030002077
:106BB00000BFFEE700B587B00121042000F0EAFC29
:106BC0000121080300F0E6FC10208DF81B00ADF851
:106BD000180003208DF81A0006A92248FFF710FEBE
:106BE00018208DF81B00A020ADF8180003208DF8A8
:106BF0001A0006A91B48FFF703FE48208DF81B006A
:106C00004020ADF8180003208DF81A0006A9154899
:106C1000FFF7F6FD4FF48270ADF806000020ADF8E6
:106C20000400ADF80800ADF812003020ADF81000F7
:106C30000020ADF80A00ADF80C004FF40070ADF87C
:106C40000E000720ADF8140001A9074800F0A0FDD0
:106C50000121054800F082FD012000F02DF807B069
:106C600000BD0000000801400030014010B50020C8
:106C700000F022F810BD10B5012000F01DF810BD85
:106C800010B5044600BF02210A4800F073FD012838
:106C9000F9D12146074800F079FD00BF01210548E0
:106CA00000F068FD0128F9D1024800F06CFDC0B287
:106CB00010BD00000030014010B5044622461021EE
:106CC0000148FFF735FE10BD000801407047000085
:106CD00070B5002100230F22C47804B3154C24683A
:106CE00004F4E064C4F5E064210AC1F10403CA407D
:106CF000447804FA03F184781440214309010E4CCE
:106D00000678A155047804F01F050124AC400578ED
:106D10006D11AD0005F1E025C5F8004109E00478EA
:106D200004F01F050124AC40044D0678761145F8A7
:106D3000264070BD0CED00E000E400E080E100E0E2
:106D400002490143024A1160704700000000FA0541
:106D50000CED00E000200CE0002106E00022064BD4
:106D600003EBC0135A544A1CD1B28029F6DB421CF3
:106D7000D0B20828F0DB70470C3000202DE9F0433A
:106D800004460D4616461F467F2C01DDBDE8F08304
:106D90003F2D00DDFAE7A119802902DDC4F1800151
:106DA000CEB2E919402902DDC5F14001CFB2284633
:106DB00030E0234629E04FEAE07C00EB5C7C4FEAC0
:106DC000EC0CDFF85C8008EBCC1C1CF803C002461E
:106DD0004FEAE07800EB58784FEAE808A0EBC809E2
:106DE0004FF0010808FA09F82CEA080C01464FEAAE
:106DF000E07800EB58784FEAE808DFF8249009EBD8
:106E0000C81808F803C0591CCBB2A1199942D2DCAA
:106E1000411CC8B2E9198142CBDC00BFB6E70000D3
:106E20000C30002038B5002406E0002500E06D1C81
:106E3000B5F57A7FFBD3641CB4F57A7FF5D30121D5
:106E4000082000F0A7FB14208DF8030003208DF824
:106E500002004FF48070ADF8000069460848FFF763
:106E6000CFFC4FF40070ADF8000069460448FFF70E
:106E7000C7FC012000F0B4F9012000F0BDF938BDD5
:106E8000000C014070B50546002411E0802121412D
:106E9000294009B1012100E00021084600F0ACF9C9
:106EA000012000F09DF9002000F09AF9601CC4B2A6
:106EB000082CEBDB012000F093F9002000F090F9A2
:106EC00070BD10B5012000F097F9012000F088F99D
:106ED000002000F091F9002000F082F910BD10B5FB
:106EE000002000F089F9012000F07AF9012000F07B
:106EF00083F910BD10B5FFF795FFAE2000F088F9BB
:106F0000D52000F085F9802000F082F9A82000F05B
:106F10007FF93F2000F07CF9D32000F079F90020C0
:106F200000F076F9402000F073F9A12000F070F92C
:106F3000C82000F06DF9DA2000F06AF9122000F0A4
:106F400067F9812000F064F9CF2000F061F9D920C1
:106F500000F05EF9F12000F05BF9DB2000F058F959
:106F6000302000F055F9A42000F052F9A62000F0DE
:106F70004FF98D2000F04CF9142000F049F9AF20B2
:106F800000F046F910BD10B50246012000E0504364
:106F90000B1EA1F10101FAD110BD70B505460C46DA
:106FA00045F0B00000F034F9102141EA141000F06F
:106FB0002FF904F00F0000F02BF970BDF8B506466C
:106FC0000F4614461D46082D0CD1A4F120000E4991
:106FD00001EB00101023082239460090304600F0E3
:106FE00017F80FE0062D0DD1A4F1200000EB4000B2
:106FF000064901EB4000082306223946009030463E
:1070000000F006F8F8BD000084B3000874B9000869
:107010002DE9F04707460C4690469946DDF820A03A
:107020007F2F01DDBDE8F0873F2C00DDFAE74B46FE
:10703000424621463846FFF7A1FE002570E00026B3
:1070400069E0B8197F2800DD67E0E11704EB5171B2
:1070500005EBE101072900DDE4E72046E21704EB38
:10706000527205EBE202344B03EBC212BB19D25C45
:107070002146E31704EB5373DB10A4EBC30305FBBA
:10708000086C1AF80CC00CFA03FC42EA0C02E31775
:1070900004EB537305EBE303DFF89CC00CEBC31365
:1070A00007EB060C03F80C20E11704EB517105EB1C
:1070B000E101491C072900DD2BE02046E21704EB23
:1070C000527205EBE202521C1B4B03EBC212BB19BE
:1070D000D25C2146E31704EB5373DB10A4EBC3032C
:1070E000C3F1080305FB086C1AF80CC04CFA03FC4A
:1070F00042EA0C02E31704EB537305EBE3035B1C5A
:10710000DFF834C00CEBC31307EB060C03F80C20BC
:1071100000BF701CC6B2464593DB00BF681CC5B2F9
:10712000A9F10100C11700EB5171012202EBE1014D
:10713000A94284DC00BF75E70C3000202DE9F04740
:107140000646894617461D46DDF82080002417E0D4
:10715000281B411E0A20FFF716FFB7FBF0F00A219B
:10716000B0FBF1F201FB120000F1300A04FB0861F0
:10717000C8B2434652464946FFF720FF601CC4B2DE
:10718000AC42E5DBBDE8F0872DE9F04106468846D4
:1071900015461F46002409E02A5D04FB0761C8B2BA
:1071A0003B464146FFF70AFF601CC4B2285D002839
:1071B000F2D1BDE8F081000010B500240BE0002101
:1071C0002046FFF7EAFE054901EBC410802100F0DC
:1071D0002FF8601CC4B2082CF1DB10BD0C3000206D
:1071E00010B5044622464FF480710248FFF7A0FB19
:1071F00010BD0000000C014010B5044622464FF4BB
:1072000000710248FFF794FB10BD0000000C014024
:1072100010B50446FFF755FE7820FFF733FE002037
:10722000FFF730FE2046FFF72DFEFFF758FE10BD9A
:1072300070B505460E46FFF744FE7820FFF722FEA4
:107240004020FFF71FFE002404E0285DFFF71AFE30
:10725000601CC4B2B442F8DBFFF741FE70BD000011
:1072600000F048F808B3002001F028F8042219497A
:10727000002000F0DBFF042216490839900100F0DD
:10728000D5FF04221349091FD00100F0CFFFFFF7FB
:1072900061FD062310A200210846FFF775FFFFF7E6
:1072A0008BFF4FF4FA6001F0E5FCFFF77BF9FFF785
:1072B0004FFBFFF7C7F80BE04FF0FF310C480068B9
:1072C00003F0B4FA012803D1FFF76EFB00F07EFA59
:1072D000F2E700000C0100205570677261646520C0
:1072E0006166746572207265737461727400000067
:1072F0002C0000202DE9F04101224CA14CA0FFF709
:10730000FFF8012249A14CA0FFF7FAF8012247A19A
:107310004CA0FFF7F5F8012251A153A0FFF7F0F8B8
:1073200001225CA15CA0FFF7EBF804225E494FF458
:10733000407000F0A1FF5C495C4800F0FBFF40F6A4
:10734000AC5001F097FC40F209215948FFF784F84E
:1073500058A15748FDF762FF10B158A000F0EAFFAE
:10736000FFF770F801224BA15AA0FFF7C9F85D485A
:1073700000F0E0FF40F6AC5001F07CFC40F2092147
:107380004B48FFF769F858A14948FDF747FF60B13E
:1073900058A000F0CFFFFFF755F801225BA15DA0D8
:1073A000FFF7AEF80020BDE8F081DFF804815CA1B2
:1073B0004046FDF733FF044684B10A3422212046BB
:1073C000FDF74AFF074647B1381B062805D23A1B8E
:1073D00021463548FDF734FFB84600BF53A140466B
:1073E000FDF71CFF054645B1AD1D0A2200212846C8
:1073F000FDF7D0FF2C498860A8464EA14046FDF716
:107400000DFF06463EB1F61D0A2200213046FDF76B
:10741000C1FF2549C860FFF715F800BF01223BA155
:107420003CA0FFF76DF80120BDE700004F4B0000C6
:1074300041542B525354000041542B43574D4F4459
:10744000453D310041542B43574A41503D2261781C
:1074500078222C22686A6831303038363131220087
:10746000434F4E4E4543540041542B4349505354CF
:107470004152543D22544350222C22696F742D6195
:1074800070692E6865636C6F7564732E636F6D220F
:107490002C3830003E00000041542B4349505345E6
:1074A0004E443D3238370000FC000020E8BE0008A2
:1074B000F62D00207375636300000000E4B88AE6CF
:1074C0008AA5E78988E69CACE58FB7E68890E58ACF
:1074D0009F0D0A0041542B43495053454E443D32C1
:1074E00034320000F0BD00086E6F74206578697357
:1074F00074000000E5B7B2E698AFE69C80E696B06F
:10750000E78988E69CAC0D0A00000000434C4F530D
:107510004544000041542B434950434C4F534500D0
:1075200022746172676574223A22000022746964D1
:10753000223A00002273697A65223A0013B50446A4
:10754000BDF8040028B100231A4601A9204603F023
:107550001BF81CBD29B1064A52690243044B5A610B
:1075600004E0034A52698243014B5A6170470000AC
:107570000010024029B1064AD2690243044BDA6185
:1075800004E0034AD2698243014BDA61704700008C
:107590000010024029B1064A92690243044B9A61E5
:1075A00004E0034A92698243014B9A6170470000EC
:1075B0000010024030B500210022002400232D4D90
:1075C0006D6805F00C0121B1042905D0082923D1EB
:1075D00005E0294D056022E0274D05601FE0254D9F
:1075E0006D6805F47012234D6D6805F48034022532
:1075F00005EB92421CB9214D554305600BE01D4D32
:107600006D6805F400351DB11C4D5543056002E061
:10761000194D5543056002E0174D056000BF00BFDE
:10762000144D6D6805F0F0010909154D6B5C056896
:10763000DD4045600F4D6D6805F4E061090A104DAD
:107640006B5C4568DD4085600A4D6D6805F46051EE
:10765000C90A0B4D6B5C4568DD40C560054D6D6822
:1076600005F44041890B074D6B5CC568B5FBF3F52C
:10767000056130BD0010024000127A0000093D0093
:10768000590000206900002070B50025072406E09D
:1076900000F042F8A0402843C5B2601E44B2002C5E
:1076A000F6DA284670BD000010B5FEF767FDFEF75C
:1076B00021FD012824D1FFF7E7FF12490870FFF7E9
:1076C000E3FF11490870FFF7DFFF10490870FFF76B
:1076D000DBFF0F490870FFF7D7FF0E490870094814
:1076E0000078094909780844084909780844084994
:1076F0000978084407490978884201D1012010BD62
:107700000020FCE7110100201201002013010020DD
:10771000140100201501002010B500BF4FF40061D6
:107720000D48FFF7F8F80028F8D0282001F0AEFA4D
:107730004FF400610848FFF7EEF8012809D100BFB7
:107740004FF400610448FFF7E6F80128F8D0012063
:1077500010BD0020FCE70000000C014021B10288B0
:1077600042F04002028004E002884FF6BF731A40E4
:10777000028070470246002013890B400BB10120A4
:1077800000E000207047014688897047818170477A
:1077900010B50022028802F441520B884C88234322
:1077A0008C882343CC8823430C8923434C8923436F
:1077B0008C892343CC8923431A430280838B4FF265
:1077C000FF74234083830B8A038210BD38B50025E4
:1077D000002414E00E4850F824100EA0FFF7A0F982
:1077E00001280BD1601C85B200200223024601460D
:1077F00000900B48006803F057F902E0641C052C68
:10780000E8DB00BF294607480068FFF797FE38BD50
:1078100000000020536572766F616E676C65000032
:10782000500000202000002000B589B00121022076
:10783000FFF7A0FE01210820FFF7ACFE18208DF80D
:1078400023000220ADF8200003208DF8220008A9B3
:107850001848FEF7D5FF184800F082FA0020ADF86E
:107860001A00ADF8160044F61F60ADF81800472066
:10787000ADF8140000208DF81C0005A90E4800F09A
:10788000D5FA01A800F0C4FA6020ADF80400002089
:10789000ADF80C000120ADF806000020ADF80A009C
:1078A00001A9054800F062FA0121034800F04CFAF2
:1078B00009B000BD000C01400004004008B560E0C4
:1078C000002400200090421E69462E48006802F005
:1078D0002BFF012854D1FEF7B5FD9DF800000628C6
:1078E0003BD2DFE800F03A030E19242F002000F00D
:1078F00081F825A226A12948007800F011F9C4B228
:107900002CE0274800F076F826A221A12348007831
:1079100000F006F9C4B221E0234800F06BF823A27E
:107920001BA11E48007800F0FBF8C4B216E0204806
:1079300000F060F81FA216A11848007800F0F0F8D7
:10794000C4B20BE01D4800F055F81DA210A1134869
:10795000007800F0E5F8C4B200E000BF00BF012CE1
:1079600007D100231A4618A11C48006802F00CFE3B
:1079700006E000231A461AA11848006802F004FE27
:1079800000BF9DE7200000207A65726F00000000B4
:10799000536572766F616E676C650000F9000020B8
:1079A000000034426F6E65000000B44274776F00CF
:1079B00000000743746872656500000000003443EE
:1079C000666F757200000000E888B5E69CBAE69B19
:1079D000B4E696B0E68890E58A9F00002400002077
:1079E000E888B5E69CBAE69BB4E696B0E5A4B1E8B3
:1079F000B4A500002DE9F04104460B492046FDF7EF
:107A00008CFD80460949FDF756FD07460849FDF7FC
:107A1000FAFC0646FDF747FF85B22946054800F007
:107A200001FABDE8F0810000000034430000FA4490
:107A30000000FA430004004010B500F001F810BD4A
:107A40000CB50020019000903348006840F480306D
:107A50003149086000BF3048006800F400300090F1
:107A60000198401C0190009818B90198B0F5A06FDA
:107A7000F1D12948006800F4003010B101200090D5
:107A800001E0002000900098012843D123480068BD
:107A900040F01000214908600846006820F0070007
:107AA00008600846006840F0020008601A48406814
:107AB000194948600846406848600846406840F4F4
:107AC000806048600846406820F47C1048600846A2
:107AD000406840F4E81048600846006840F0807054
:107AE000086000BF0C48006800F000700028F9D062
:107AF0000948406820F0030007494860084640688C
:107B000040F00200486000BF0348406800F00C00ED
:107B10000828F9D10CBD00000010024000200240EE
:107B2000F0B5A9B006460C46154600272248007855
:107B3000401C2149087026B1012E0CD0042E1ED104
:107B400013E01D48CDE9004503781C4A9C2102A89A
:107B500000F000FC14E01848CDE900450378184A0D
:107B60009C2102A800F0F6FB0AE01348CDE900458D
:107B70000378124A9C2102A800F0ECFB00E000BF51
:107B800000BF40F6C4110F48006802F04FFE012804
:107B90000ED100220CA102A8FEF7B2FC012800D1F0
:107BA000012700231A4619460648006802F0ECFC3B
:107BB000384629B0F0BD00001001002088C0000840
:107BC00010C000082800002073756363657373009C
:107BD0003EB502F0D7F82448042100234822CDE91D
:107BE000001022A1254802F0E9FE254802210023C9
:107BF000A222CDE9001023A1254802F0DFFE25488E
:107C000002210023A222CDE9001023A1254802F081
:107C1000D5FE254801210023A222CDE9001023A191
:107C2000254802F0CBFE2548254903220023CDE953
:107C300000210290402223A1244802F0DBFE2449C7
:107C4000086003F02FF80446002003462246012175
:107C500000902048006803F069FB02F0A5F80020BE
:107C600002F0DCF93EBD0000440000204F4E454EBE
:107C700045545F436F6E74726F6C00006172000850
:107C8000480000204C45445F5461736B00000000C5
:107C9000396A00084C000020536572766F5F5461AA
:107CA000736B0000BD780008500000205869616EB9
:107CB0006759696E67000000D95F00081C02002048
:107CC0001C010020446973706C61790061630008D5
:107CD000540000203000002010B502F0D3FF01282E
:107CE00001D002F08DFB10BD10B51248006840F0C5
:107CF000010010490860084640680F4908400D49D6
:107D00004860084600680D4908400A49086008466E
:107D1000006820F4802008600846406820F4FE00D7
:107D200048604FF41F008860FFF786FE044805494D
:107D3000086010BD001002400000FFF8FFFFF6FED3
:107D40000050000808ED00E021B1028842F0010275
:107D5000028004E002884FF6FE731A4002807047EA
:107D600001894FF6F87211400181704770B5002407
:107D700000220023058C4FF6EF7635400584028CF7
:107D80008388048B48F6FF752C404FF6FF452C4046
:107D90000D884FF6FF7606EA05252C434FF6DF7572
:107DA0002A400D8906EA05152A434D8806EA05157D
:107DB0002A43154DA84202D0144DA8421DD14FF6BA
:107DC0007F752A404D894FF6FF7606EA05152A434E
:107DD0004FF6BF752A408D8806EA05152A434FF6EF
:107DE000FF352B404FF2FF752B408D8906EA850544
:107DF0002B43CD8906EA85052B4383800483CD88F8
:107E00000587028470BD0000002C01400034014051
:107E10000021018041808180C18001814181818177
:107E2000C1817047A0F8401070470000002202880E
:107E30001D4B98420ED01D4B98420BD0B0F1804F95
:107E400008D01B4B984205D01A4B984202D01A4BCF
:107E5000984204D14FF68F731A404B881A43174B40
:107E6000984207D0164B984204D04FF6FF431A4071
:107E7000CB881A4302808B8883850B8803850A4B45
:107E800098420BD0094B984208D00E4B984205D02F
:107E90000D4B984202D00D4B984201D10B7A0386CC
:107EA0000123838270470000002C01400034014010
:107EB0000004004000080040000C0040001000409A
:107EC00000140040004001400044014000480140CF
:107ED00038B540F22441184800F04FF858B300205C
:107EE000009015480488001D048814490988481C1E
:107EF000C11700EBD1514912A0EB4121104A128861
:107F0000914217D00F48C06D4042C0F308000B49A2
:107F1000088069460C48006802F0C2FB00BF009868
:107F200038B14FF0805009490860BFF34F8FBFF35D
:107F30006F8F00BF00BF38BD00380140F000002047
:107F4000F2000020000002402C00002004ED00E0C0
:107F500021B1828942F40052828104E082894DF687
:107F6000FF731A40828170471AB1838A0B43838260
:107F700002E0838A8B438382704770B502460024F7
:107F800000230025002040F66A16B14200D100BF50
:107F9000C1F3421501F01F03012606FA03F3012D78
:107FA00002D19689334006E0022D02D1168A334071
:107FB00001E0968A33400C12012606FA04F4168872
:107FC000344013B10CB1012000E0002070BDF0B5C9
:107FD0000346002400260025002040F66A17B94217
:107FE00000D100BF1846C1F3421401F01F0601275B
:107FF00007FA06F5012C01D10C3004E0022C01D166
:10800000103000E014301AB107682F43076002E017
:108010000768AF430760F0BD2DE9F04786B005461D
:108020000E460024A24600BFA1460027B08900B139
:1080300000BF2F462C8A4CF6FF700440F0880443A2
:108040002C82AC894EF6F3100440B0883189084385
:10805000718908430443AC81AC8A4FF6FF40044069
:10806000B0890443AC8201A8FFF7A4FA1F488742F5
:1080700002D1DDF810A001E0DDF80CA0A88900F421
:10808000004040B10AEBCA0000EB0A103168490019
:10809000B0FBF1F807E00AEBCA0000EB0A10316808
:1080A0008900B0FBF1F86420B8FBF0F0040120096E
:1080B000642101FB1089A88900F4004040B13220FE
:1080C00000EBC900B0FBF1F000F00700044308E04A
:1080D000322000EB09106421B0FBF1F000F00F003A
:1080E00004432C8106B0BDE8F08700000038014051
:1080F00000BFFEE700B591B001218803FFF74AFAFF
:1081000001210420FFF746FA01210846FFF722FA71
:108110004FF40070ADF8400018208DF843000320A4
:108120008DF8420010A93B48FEF76AFB4FF48060CF
:10813000ADF8400048208DF8430010A93548FEF7FF
:108140005FFB4FF4E1300C900020ADF83400ADF847
:108150003600ADF83800ADF83C000C20ADF83A0020
:108160000CA92D48FFF758FF4FF4A060FEF7E8FD7B
:1081700025208DF82C0001208DF82D0000208DF891
:108180002E0001208DF82F000BA8FEF7A1FD012283
:1081900040F224412048FFF71AFF01211E48FFF753
:1081A000D7FE4FF400700390002002900A904FF425
:1081B0000050099020200890184801900020079056
:1081C000802005901448001D009000200690049027
:1081D00069461348FEF789F801211148FEF75AF85D
:1081E0000F208DF82C0001208DF82D008DF82E0029
:1081F0008DF82F000BA8FEF76BFD01220221084825
:10820000FEF76AF8012240210348FFF7ADFE11B0E6
:1082100000BD00000008014000380140F62B00209E
:108220005800024010B5FEF7C5FC10BD2DE9F04125
:1082300004460E46174600F073F8FEF717FD0220BD
:10824000FEF71EFDC4F30740FEF71AFDC4F3072036
:10825000FEF716FDE0B2FEF713FD002504E0705DA9
:10826000FEF70EFD681C85B2BD42F8DBFEF703FD8C
:1082700000F03EF8BDE8F0812DE9F04104460E46DD
:108280001746FEF7F3FC0320FEF7FAFCC4F30740A1
:10829000FEF7F6FCC4F30720FEF7F2FCE0B2FEF7AF
:1082A000EFFC002504E0FF20FEF7EAFC70556D1C92
:1082B000BD42F8D3FEF7DFFCBDE8F08110B50446FF
:1082C00000F02EF8FEF7D2FC2020FEF7D9FCC4F314
:1082D0000740FEF7D5FCC4F30720FEF7D1FCE0B25F
:1082E000FEF7CEFCFEF7C7FC00F002F810BD000060
:1082F00010B5FEF7BBFC0520FEF7C2FC074C02E000
:10830000641E04B906E0FF20FEF7BAFC00F001008D
:108310000028F5D100BFFEF7AEFC10BDA08601001D
:1083200010B5FEF7A3FC0620FEF7AAFCFEF7A3FC9F
:1083300010BD00000FB4054B10B503A9044A029804
:1083400000F0F6F810BC5DF814FB0000018D000889
:10835000F40000200FB41CB50246002007AC002931
:108360000BD0491ECDE90021054B6A4621460698EF
:1083700000F0DEF8009A002111701CBC5DF814FBBF
:108380005F8C0008004870471801002002E008C810
:10839000121F08C1002AFAD170477047002001E07F
:1083A00001C1121F002AFBD1704700002DE9FF5FB9
:1083B00082B00021DDE90430020DDDF840B0034356
:1083C00018D044F61050A2F2FF324243151411980F
:1083D00001281FD0A5EB0B00401C5FEA000A4FF0FC
:1083E00000064E4FDFF83891B046504615D5CAF119
:1083F000000413E0119801244AA3012801D16FEA77
:108400000B010298119AC0E90031C0E9024206B09E
:10841000BDE8F09FCBF10000DFE704460021404AB1
:10842000491842EB0450CDE9001012E0E00707D0F4
:1084300032463B4640464946FDF754F98046894658
:1084400032463B4610461946FDF74CF906460F46A4
:108450006410002CEAD1DDE90401DDE90023BAF162
:10846000000F06DAFDF73EF942464B46FDF73AF9B2
:1084700005E0FDF7A9F942464B46FDF7A5F904468C
:108480000E460022284BFDF723FA03D84FF0FF30A9
:10849000014607E00022254B20463146FDF77BF8D8
:1084A000FDF7CBFB102409E0002C0ADB0A22002395
:1084B000FDF73CFA039B30321A55641E50EA010264
:1084C000F2D1641C039AC4F111031444119A012AD5
:1084D00003D0012208430DD10AE0084304D0002054
:1084E0004FF0110B119072E7A3EB0B056D1E0DE021
:1084F0005B4504DD4FF0000205F1010504E003DAFD
:108500004FF00002A5F10105002AECD00298119964
:10851000C0E90231C0E9004579E7000000001440DD
:108520000000F03F300000000000F0430000E03F9A
:108530002DE9FF4F95B09B468946064600250FE280
:10854000252877D100242746F84A0121059400E028
:10855000044316F8013F203B01FA03F01042F7D123
:1085600030782A2811D06FF02F033078A0F1300234
:10857000092A16D8059A44F0020402EB820203EBA2
:1085800042021044761C0590EFE759F8042B05923F
:10859000002A03DA504244F40054059044F00204E7
:1085A000761C30782E2816D116F8010F44F00404FA
:1085B0002A280DD06FF02F023078A0F13003092B5C
:1085C00009D807EB870302EB4303C718761CF3E7D0
:1085D00059F8047B761C30786C280FD006DC4C28C8
:1085E00017D068280DD06A2814D104E0742810D060
:1085F0007A280FD10DE044F400140AE044F480140A
:1086000001E044F440147278824202D104F58014EF
:10861000761C761C307866280BD013DC582877D06F
:1086200009DC002875D04528F6D04628F4D0472824
:108630001AD19DE118E0632835D0642879D06528E7
:1086400012D195E1702873D008DC6728F1D0692831
:108650006FD06E280DD06F2806D1B5E073282CD0CE
:10866000752875D0782874D05A46179990476D1C94
:1086700075E1C4F30250022809D003280DD0D9F8BF
:10868000001004280DD00D6009F1040967E1D9F844
:108690000010EA17C1E90052F6E7D9F800100D8082
:1086A000F2E70D70F0E719F8041B8DF800100020B8
:1086B0008DF80100EA46012003E059F804AB4FF0C1
:1086C000FF3061074FF0000102D40DE008F1010115
:1086D0008846B9420FDA8045F8DB1AF808100029FD
:1086E000F4D108E008F1010188468142FADB1AF86A
:1086F00008100029F6D105985B46A0EB0807214633
:108700003846179A00F094FA284400EB080507E071
:108710004DE029E10DE01AF8010B5A4617999047F0
:10872000B8F10108F7D25B4621463846179A13E1A3
:1087300042E00A220092C4F302524FF0000A022AD9
:1087400008D059F804CB032A4FEAEC710AD00DE0A7
:1087500029E02AE009F1070121F00702F2E802C14D
:10876000914609E00FFA8CFC4FEAEC71042A03D120
:108770004FFA8CFC4FEAEC71002907DA0A46002117
:10878000DCF1000C61EB02012D2202E0220504D590
:108790002B228DF80420012203E0E20701D02022E1
:1087A000F7E7904659E00A2102E010220DE010217F
:1087B0004FF0000A00910BE010224FF0000A44F045
:1087C00004040827009203E008224FF0000A0092F8
:1087D000C4F30252022A05D059F804CB0021032A1F
:1087E00008D009E009F1070121F00702F2E802C10F
:1087F000914605E01FFA8CFC042A01D10CF0FF0C15
:108800004FF00008220728D5702806D0009B83F07F
:10881000100353EA0A0305D00EE040228DF804202D
:10882000012208E05CEA010206D030228DF8042023
:108830008DF8050002229046009B83F0080353EA5E
:108840000A030AD15CEA010201D1620705D5302290
:108850008DF804204FF001087F1E582804D034A062
:1088600003900EA802900DE036A0F9E7534660464B
:10887000009AFDF75BF884460398825C0298401EDC
:10888000029002705CEA0100F0D1029806A9081A71
:1088900000F1200A600702D524F4803400E00127AB
:1088A000574502DDA7EB0A0000E0002000EB0A01BB
:1088B000009005984144401A0590E00306D45B46B9
:1088C0002146179A059800F0B3F90544002706E001
:1088D00001A85A46C05D179990476D1C7F1C4745FB
:1088E000F6DBE0030CD55B462146179A059800F0AD
:1088F0009FF9054404E030205A46179990476D1CB3
:108900000099481E00900029F5DC08E002980299C1
:108910005A460078491C0291179990476D1CBAF18C
:108920000001AAF1010AF1DC65E10000092801005B
:1089300030313233343536373839616263646566D5
:108940000000000030313233343536373839414297
:10895000434445460000000000F058F90544761CE9
:10896000307800287FF4ECAD19B02846BDE8F08FD0
:10897000620700D4062709F1070222F0070CFCE881
:108980000223E14603F000485FEA080C02D00FF230
:10899000702C0DE05FEA045C02D50FF2682C07E052
:1089A0005FEAC47C02D00FF2602C01E0AFF2700CE1
:1089B0004FF0FF3823F00043CDF850C065280CD0AD
:1089C00006DC452809D046281DD047283DD13DE08A
:1089D000662818D067287ED138E00021112F01DBEE
:1089E000112000E0781CCDE9000106A90EA8FFF7D0
:1089F000DDFCDDE90F010E9A03910021009207F1E1
:108A0000010A04914DE04FF000400097CDE90110BC
:108A100006A90EA8FFF7CAFCDDE90F0203920E9B20
:108A200011990022DDF80CA00093049211B9791C71
:108A300000EB010AB7EB0A0004D4C0F1FF3007F1E4
:108A4000010A0490AAEB0700019044E0012F00DA2C
:108A500001270021112F01DD112000E03846CDE96A
:108A6000000106A90EA8FFF7A1FCDDE90F010E9A8F
:108A70000391002104910092BA4621070CD4039976
:108A8000514500DA8A46BAF1010F05DD009AAAF1D4
:108A90000101515C302908D0B84202DA10F1040F0C
:108AA00006DA0121CDE9011015E0AAF10101E9E79B
:108AB000002805DC049901440491AAEB000102E0BE
:108AC000411C514500DD8A460499401A401C019022
:108AD0004FF000400290200704D40198504501DB7C
:108AE000CDF8048000208DF84F0002980DF14F075B
:108AF000B0F1004F25D02B200E9002984FF00208C5
:108B000000280CDA404202902D200E9007E00A2146
:108B10000298FCF7F5FE3031029007F8011DB8F11C
:108B20000001A8F10108F2DC02980028EFD1791EBB
:108B30000E980870307800F0200040F0450007F8EB
:108B4000020D12A8C01B00F107081498007800B1AC
:108B5000012000EB0A01019801EBE0710598414406
:108B6000401A401E0590E00306D45B462146179A42
:108B7000059800F05DF805441498007818B15A463D
:108B8000179990476D1CE00324D55B462146179A40
:108B9000059800F04DF805441CE00498002807DB18
:108BA000DDE90301884203DD0098405C179901E08C
:108BB000179930205A469047049805F10105401C4A
:108BC00004900198401E019004D12E205A46179916
:108BD00090476D1CBAF10001AAF1010ADDDC05E045
:108BE00017F8010B5A46179990476D1CB8F1000110
:108BF000A8F10108F4DC5B462146179A0598ABE61C
:108C00002D0000002B000000200000002DE9F041A5
:108C1000044600251E461746880404D405E039465C
:108C20002020B0476D1C641EF9D52846BDE8F081B0
:108C30002DE9F041044600251E469046C80301D5A3
:108C4000302700E02027880404D505E04146384657
:108C5000B0476D1C641EF9D52846BDE8F0814A680E
:108C6000002A06D00A68531C0B6010704868401E2A
:108C70004860704710B5044604E04FF47A7000F085
:108C800005F8641E002CF8D110BD000010B5024696
:108C90000023084C218809E0064C2088884201D333
:108CA000431A03E04FF6FF74641A23189342F3D378
:108CB00010BD0000242C0140012101200B4A126844
:108CC0000AB1002011E00A4A12680AB100200CE043
:108CD000084A12680AB1002007E0074A1368074AE9
:108CE0001268521E934200D102207047D80700201C
:108CF0009400002090000020000800208000002048
:108D000000BF054A128802F04002002AF9D0C2B220
:108D1000014B1B1D1A80704700380140FDF704FB12
:108D2000FFF7E8F9FEF7E6F8FDF76CFEFEF77CFDCD
:108D3000FFF778FAFDF702FAFDF7E8FC0CE007A070
:108D4000FFF7F8FAFEF706F806230CA22021002010
:108D5000FEF71AFAFEF730FAF1E700004672656591
:108D600072746F73E6848FE5A496E98080E587BA14
:108D70002CE8AFB7E9878DE590AF2100556E657897
:108D80007065637465642065786974002DE9F04747
:108D900005460E46294807682948D0F8008029482A
:108DA000D0F8009028480068001D00F0ADFE50B9D2
:108DB0002548006890F82C10012088402349096854
:108DC000814322480160681CE0B9DEB100BF204940
:108DD00048681D49096888601B4982680968CA603B
:108DE00019490968091D8268516017490968091DF8
:108DF0008160174A144909684A6111460968491C8B
:108E0000116018E07C19104800684460BC4206D22A
:108E10000D480168091D484600F08EFF0BE00A4826
:108E20000168091D404600F087FF0A480068844237
:108E300001D208480460BDE8F087000084000020EB
:108E400074000020780000207000002088000020BE
:108E500000080020A000002010B5044600F092FF9A
:108E600032480068401C314908603148006840B908
:108E70002F4804600846006801280DD100F0DCFA94
:108E80000AE02C48006838B929480068C06AE16ADD
:108E9000884201D82648046027480068401C2649BB
:108EA000086000BF94F82C1001208840234909680D
:108EB00008432249086000BFE16A01EB8101204AB2
:108EC00002EB81014868A0608268E260211D82682F
:108ED00051608160E16A01EB8101194A02EB810274
:108EE0006261E16A01EB8101154A52F82110491CC7
:108EF000E26A02EB8202124B43F8221000BF00BF6D
:108F000000F052FF0B48006878B100BF08480068C5
:108F1000C06AE16A884207D24FF080500949086070
:108F2000BFF34F8FBFF36F8F00BF10BD80000020D5
:108F3000700000208C0000209C0000208800002091
:108F4000E806002004ED00E008B500F01BFF0E4825
:108F50000068A8B90D4800F0DFFE0D4800F0DCFE07
:108F60000A480C4908600A480B49086000200B4B6E
:108F70000B4A0C210090022001F096FA0249086089
:108F800000F012FF08BD0000B80000201408002007
:108F900028080020B0000020B40000203C08002079
:108FA0008408002010B516E000F0ECFE0C48C06804
:108FB000C468201D00F0A8FD0A480068401E094949
:108FC000086009480068401E0749086000F0ECFE90
:108FD000204600F0F8F8044800680028E4D110BDED
:108FE000EC070020800000207C00002070B50446C3
:108FF0000D46206C70B1216CE0680144E160D4E959
:109000000210884201D32168E1602846226CE168A1
:10901000FCF7D4F870BD2DE9F04104460F46154623
:109020004FF00008A66B206C48B9206800282CD1AE
:10903000A06801F00DFF80460020A06025E07DB90A
:109040003946226C6068FCF7B9F8216C6068084406
:109050006060D4E90101884217D32068606014E0A1
:109060003946226CE068FCF7A9F8216CE068411AE7
:10907000E1602168E068884203D2216CA068411A4F
:10908000E160022D01D106B1761E701CA06340463E
:10909000BDE8F081F0B58BB001260027002508E07F
:1090A0001AA0405D07A9485507A8405D00B902E035
:1090B0006D1C102DF4DB00BF002421E0154F0020B3
:1090C0000690059004AA05A906A800F037FD002225
:1090D000DDE905101346CDE90021029007A93846C5
:1090E000049A01F087FC0C4941F82400084650F826
:1090F000240008B1012600E0002606B902E0641C45
:10910000012CDBDB00BF30460BB0F0BD49444C45C1
:1091100000000000E5920008A40000202DE9FF4FA8
:1091200085B0074688469146DDE9145BDDE912A665
:10913000ADB1A6B12C4654212046FCF758F8266361
:10914000022084F851000020CDE900ABCDE90240B7
:109150004A4641463846089B00F00EF900E00024DC
:10916000204609B0BDE8F08F2DE9FF5F074688462D
:1091700016469946DDE90EABB00000F0D3FB05467C
:1091800075B1542000F0CEFB04462CB1542120468A
:10919000FCF72DF8256304E0284600F015FE00E0FA
:1091A000002464B1002084F851004B463246414609
:1091B000CDE900ABCDE90240384600F0DDF82046AD
:1091C00004B0BDE8F09F10B5044694F8510030B9E2
:1091D000206B00F0F9FD204600F0F6FD06E094F863
:1091E0005100012802D1204600F0EEFD10BD0146DD
:1091F0004A6A22B10A6B1268C2F10A0000E000203C
:1092000070470000002101220C4B1B68012B00D984
:1092100001210B4A1268D26A0AB100200DE0094A06
:109220001268012A01D9002007E009B1002004E0FA
:10923000054A1068054A1268801A704788000020A5
:1092400070000020E8060020A0000020840000201C
:109250000146084A126812680AB9012200E0002299
:109260000A600A6822B9034A1268D268106800E0EE
:1092700000207047B000002030B542F25A33144845
:1092800000F007042CB1C01D20F00700104C041B97
:109290001B1B104C206000240E4D6C60C218083A55
:1092A00022F007020C4C226000240B4D2D686C60EC
:1092B000094D2D682C600146541A4C60064C2468F8
:1092C0000C60064D4C682C60054D4C682C6030BD20
:1092D0009C080020C4000020CC000020D400002006
:1092E000D000002000BFFFF75DFE10480068012895
:1092F00007D94FF080500E490860BFF34F8FBFF37E
:109300006F8F00F033FCFFF77DFF0446022C0BD378
:1093100000F0FEFFFFF776FF0446022C02D3204642
:1093200000F09AFD01F0F8FEDDE70000E8060020FD
:1093300004ED00E010B5044654B10020A0602060A8
:109340000021E16000231A461946204601F01CF96D
:1093500010BD2DE9F04106460D4617469846069C7D
:109360000DB9246000E02760E663256401212046F2
:1093700001F0BAF8BDE8F0812DE9F05F81460E46B4
:1093800090469A460A9F0C9C4FEA8801A522206BC2
:10939000FBF726FFA8F10100216B01EB800B2BF0FE
:1093A000070B7EB1002507E0715D04F134004155E3
:1093B000705D00B902E06D1C102DF5D300BF0021D7
:1093C000432001550A2F00D30927E7626764201D57
:1093D00000F0AFFC04F1180000F0ABFC2461C7F111
:1093E0000A00A061646252464946584600F024FBD8
:1093F00020600B9808B10B980460BDE8F09F2DE940
:10940000F04705460E4617469846DDE90894FFF7F3
:109410009BFD2560A661C4F81C80C4F82090201D27
:1094200000F087FC2FB194F8240040F0040084F889
:109430002400BDE8F087000010B5002407E004EB2D
:1094400084010F4A02EB810000F066FC641C0A2CC8
:10945000F5D30C4800F060FC0B4800F05DFC0B48B5
:1094600000F05AFC0A4800F057FC0A4800F054FC8F
:1094700004480949086004480849086010BD000014
:10948000E8060020B0070020C4070020D80700200D
:10949000EC07002000080020740000207800002065
:1094A00010B50146164800E0006803688B42FBD304
:1094B0000246436813448B4204D143684C682344FA
:1094C000436001460A464B6813440468A34211D125
:1094D0000C4C03682468A34208D04B680468646895
:1094E00023444B6003681B680B6005E0054B1B6859
:1094F0000B6001E003680B60884200D0016010BD82
:10950000C4000020CC0000202DE9F04104460D46A7
:1095100016461F464FF0000865602461B5420CD81E
:10952000F01BA169884202D34FF0010811E0211D10
:109530000948006800F000FC0BE0BE4204D2BD42C6
:1095400002D34FF0010804E0211D0448006800F038
:10955000F3FB4046BDE8F081B4000020B0000020DD
:1095600070B5054600F00EFCA86B08B9012400E0B8
:10957000002400F019FC204670BD70B5054600F0CF
:1095800001FCA86BE96B884201D1012400E00024B2
:1095900000F00AFC204670BD70B505460E460E4828
:1095A0000068C068C468201D00F0AEFA94F824007A
:1095B00000F0040028B132462946204600F0C8F8E1
:1095C00005E094F8240000F0FE0084F82400204612
:1095D000216A884770BD0000B00000207FB50020E0
:1095E0000190029003906EE0019800286BDB039CD1
:1095F000606908B9012000E0002010B9201D00F0CA
:1096000083FA684600F0D0F8054601980A2858D237
:10961000DFE800F05705072E364706082F3700BF52
:1096200000BF00BF94F8240040F0010084F824003B
:109630000298A269811803462A462046FFF764FF74
:10964000A8B194F8240000F0040038B10298A2698F
:1096500081182A46204600F07BF805E094F82400A3
:1096600000F0FE0084F824002046216A884729E0A3
:1096700000BF94F8240000F0FE0084F8240021E0EC
:1096800000BF94F8240040F0010084F82400029800
:10969000A061A06941192B462A462046FFF734FFF6
:1096A00010E094F8240000F0020018B9204600F001
:1096B0008BFB05E094F8240000F0FE0084F8240001
:1096C00000E000BF00BF002201A90348006801F0CC
:1096D0002BF8002888D17FBDB8000020F8B50546DA
:1096E0000C4600F015FE684600F05EF8064600984D
:1096F00020BB44B9B54206D801F00EFD31462846DC
:10970000FFF74AFF1CE03CB10E480068006808B94A
:10971000012000E000200446A91B22460A480068F8
:1097200000F03CFC01F0F8FC50B94FF080500749C4
:109730000860BFF34F8FBFF36F8F01E001F0ECFCC7
:10974000F8BD0000B4000020B800002004ED00E0E7
:1097500070B504460D46164604E0A069054420464F
:10976000216A8847A06941192B4632462046FFF7F7
:10977000CBFE0028F1D170BD09480068006808B927
:10978000012000E0002020B14FF0FF3005490860C3
:1097900005E003480068C068006802490860704737
:1097A00074000020A000002070B5044601F07AFA91
:1097B000054607480068854204D200F039F80120C8
:1097C000206001E00020206001480560284670BD4F
:1097D000C00000202DE9F04102460D460020002681
:1097E00002F1080CD2F80080B8F1000F1ED0D36847
:1097F00019E0DE68002700210FE006F1340818F8B0
:10980000014015F80180A04501D0012702E00CB904
:109810003046012707B102E0491C1029EDD300BFF3
:1098200000B102E05B686345E3D100BFBDE8F081B1
:1098300070B508E00D480068C06804684FF0FF315B
:109840002046FFF7A9FE09480068006808B9012012
:1098500000E000200028EDD00448056804480068B6
:10986000024908600248056070BD0000B000002099
:10987000B400002000BFBF2080F31188BFF34F8FDA
:10988000BFF36F8F00BF00BFFEE708B500BF68469B
:10989000FFF7DEFC044620460099FFF71FFFFFF7A5
:1098A0009DFEF4E770B5044600F06CFA94F945505B
:1098B00010E0606A08B9012000E0002038B904F126
:1098C000240001F099FB18B100F02AFC00E003E04D
:1098D000681E45B2002DECDC00BFFF2084F8450077
:1098E00000F062FA00F04EFA94F9445010E020695A
:1098F00008B9012000E0002048B904F1100001F08F
:109900007BFB08B100F00CFC681E45B200E001E0F2
:10991000002DECDC00BFFF2084F8440000F044FA86
:1099200070BD00002DE9F04704464FF00009DCB19E
:1099300014F1090F01D9012000E0002098B9083482
:1099400004F0070080B104F00700C0F10808C8F176
:10995000FF30A04201D2012000E0002008B94444B9
:1099600002E0002400E0002400F0D2FC2848006857
:1099700008B9FFF781FC012000EBE470002841D01A
:10998000002C3FD02348006884423BD8224E30460A
:10999000056801E02E462D686868A04202D228685A
:1099A0000028F7D11A48006885422BD0306800F1B2
:1099B0000809286830606868001B102807D92F192B
:1099C0006868001B78606C603068386037601149E7
:1099D00068680968081A0F490860084600680F4956
:1099E0000968884203D20B4800680C49086068681F
:1099F00040F0004068600020286009480068401C72
:109A00000749086001F088FB4846BDE8F087000080
:109A1000CC000020D0000020C4000020D400002092
:109A2000D80000200349086810B1816C491C81648A
:109A30007047000070000020001F4FF0807303602B
:109A4000001F21F001030360001F034B0360143863
:109A50000260203870470000759800082DE9F04733
:109A60000446884616464FF0000900F051FC00F00D
:109A700089F9234800684C3050F8240030B901219E
:109A80001F4800685030015506B1894600F08CF936
:109A9000B9F1010F03D101213046FFF777F901F049
:109AA0003BFB0746B9F1010F08D13FB94FF0805099
:109AB00014490860BFF34F8FBFF36F8F00F062F956
:109AC0000F4800684C3050F824507DB1B8F1000FB9
:109AD00006D000210A4800684C3040F8241005E008
:109AE000681E074909684C3141F8240000210448E8
:109AF00000685030015500F057F92846BDE8F0875E
:109B00007000002004ED00E001460A69D1E901304F
:109B10009860D1E9010358605068884201D1886893
:109B20005060002008611068401E10601068704787
:109B3000014800687047000080000020034B03606C
:109B4000034B0B604023136070470000700300203C
:109B500070020020034B0360034B0B60B4231360BF
:109B60007047000094060020C403002010B5C824EC
:109B70002A48007838B901F095F829490860012091
:109B80002649087010BD01F08DF825490968401A72
:109B90004EF6602188423ED94FF0FF3121480068DF
:109BA00000F044FE012836D11FA0FEF7C3FB22E0DF
:109BB00040F209212048FCF74FFC20A11E48FBF78A
:109BC0002DFB002812D0FCF73DFC01221FA120A094
:109BD000FCF796FC002809D001221CA123A0FCF769
:109BE0008FFC012219A131A0FCF78AFCFCF72AFCAA
:109BF0000A20FFF73FF8201EA4F10101CCB2D7D113
:109C000001F050F80649086000231A461946054835
:109C1000006800F0B9FC00BFB4E700005800002065
:109C2000340000202800002041542B4D515454434F
:109C30004F4E4E3F0D0A0000F62D00202B4D515483
:109C400054434F4E4E3A302C330000004F4B00002F
:109C500041542B43574A41503D22617878222C22AF
:109C6000686A6831303038363131220041542B4D2A
:109C70005154545355423D302C22247379732F5242
:109C80005555507653474C51642F4F6E652F74686D
:109C9000696E672F70726F70657274792F706F7351
:109CA000742F7265706C79222C31000041542B4D59
:109CB0005154545355423D302C22247379732F5202
:109CC0005555507653474C51642F4F6E652F74682D
:109CD000696E672F70726F70657274792F73657417
:109CE000222C31000C46214602A0FEF723FB00BFC8
:109CF000FEE7000021212120535441434B204F56C1
:109D00004552464C4F5720494E205441534B3A2020
:109D10002573202121210A0000F1080141604FF044
:109D2000FF31816000F10801C16001610021016023
:109D3000704700210161704710B502460B685C1C3A
:109D40000CB9106907E002F1080000E040684468BF
:109D500024689C42FAD944684C604C68A1608860D1
:109D600041600A611468641C146010BD42684A6056
:109D700093688B60936859609160086103685B1C0D
:109D80000360704700BFBF2080F31188BFF34F8F7F
:109D9000BFF36F8F00BF03480068401C0149086093
:109DA00070470000E000002006480068401E05499A
:109DB00008600846006820B9002080F3118800BFC1
:109DC00000BF7047E000002070B506463546E6B19A
:109DD000083D2C466068C00FB8B12068A8B960681B
:109DE00020F00040606000F093FA0849606809685C
:109DF0000844064908602046FFF752FB0448006803
:109E0000401C0349086001F087F970BDD0000020B4
:109E1000DC0000200C480D490860084600686FF01F
:109E20007F41B1FBF0F00A4908605E2009490860F3
:109E300000204FF0E021086188610348401E48611E
:109E4000072008617047000040190100E40000206D
:109E5000E8000020EC0000202DE9F04704464B48C4
:109E60000068844201D94948046872B6BFF34F8F35
:109E7000BFF36F8FFEF720FF08B962B683E00620BC
:109E80004FF0E0210861084687690FB9404807682C
:109E9000601E3F49096801FB00753E48006800F0FC
:109EA000806030B14FF000703A490860384800686F
:109EB0002D1A39480068854202D9374800682D1AA2
:109EC0004FF0E020456100204FF0E0218861084616
:109ED000006940F001000861A146B9F1000404D016
:109EE000BFF34F8F30BFBFF36F8F62B6BFF34F8F9B
:109EF000BFF36F8F72B6BFF34F8FBFF36F8F062024
:109F00004FF0E02108610846006900F48030B8B1E4
:109F10001F490968491E4FF0E0229269AA1A881A5F
:109F20001D490968884203D919490968884202D93C
:109F300017490968481E4FF0E0214861661E14E089
:109F40004FF0E0208769124800686043A0EB0708E3
:109F50000F480068B8FBF0F6701C0D4909684843CB
:109F6000A0EB08004FF0E021486100204FF0E02115
:109F700088610720086106480068401E4861304635
:109F800000F0A6F962B6BDE8F0870000E800002006
:109F9000E400002004ED00E0EC0000202DE9F04199
:109FA00005460E4617462C46FFF7ECFE94F9440092
:109FB000401C10B9002084F8440094F94500401C6E
:109FC00010B9002084F84500FFF7EEFEA06B28B919
:109FD0003A46314604F1240000F0B8F82046FFF775
:109FE00061FCBDE8F081000070B50446002544B175
:109FF00000F08EF900212046FEF7C8FE01F08CF833
:10A0000005463DB94FF0805003490860BFF34F8FBC
:10A01000BFF36F8F70BD000004ED00E02DE9F0414B
:10A0200005460026FFF7AEFE15B92E48006800E091
:10A0300028460446201DFFF767FD88B900BFE06A87
:10A0400000EB8000284951F8200040B994F82C100A
:10A05000012088402549096881432448016000BFE8
:10A06000A06A18B104F11800FFF74EFD20480068FF
:10A07000401C1F4908601B480068844201D1012030
:10A0800000E0002007461B48006858B157B1211D69
:10A090001948FFF76BFE19480068401C1749086013
:10A0A000012606E016480068401E15490860FFF7C3
:10A0B00063FBFFF779FE012E02D02046FFF783F8FD
:10A0C0000C48006858B107480068844207D14FF037
:10A0D00080500C490860BFF34F8FBFF36F8FBDE80E
:10A0E000F081000070000020E806002088000020B9
:10A0F0009C0000208C000020EC0700207C00002049
:10A100008000002004ED00E0034909680160034974
:10A11000096841607047000098000020840000201A
:10A1200001200149086070479400002070B5054681
:10A130000C460548016818312846FFF7FDFD01214E
:10A140002046FEF723FE70BD7000002070B5044667
:10A150000E46154600BF60680F490968C8610E4980
:10A16000826809680A620C4909681831826851607E
:10A170000949096818318160074909688C622168BA
:10A18000491C216000BF0DB14FF0FF362946304613
:10A19000FEF7FCFD70BD0000700000202DE9F047C7
:10A1A00006460F4634464FF00109002E5DD0606C24
:10A1B000B84201D23D4600E0656CE06AA84254D046
:10A1C000A06C012851D1D4F82C80E562A06900F080
:10A1D000004010B9C5F10A00A06108EB8801244ACB
:10A1E00002EB81016069884201D1012000E000207A
:10A1F000D8B3201DFFF788FC40B994F82C1001203B
:10A2000088401C49096881431A48016000BF94F8DE
:10A210002C10012088401749096808431549086037
:10A2200000BFE16A01EB8101114A02EB810148683C
:10A23000A0608268E260211D826851608160E16AED
:10A2400001EB81010A4A02EB81026261E16A01EBE2
:10A250008101074A52F82110491CE26A02EB82028E
:10A26000034B43F8221000BF00BFBDE8F087000099
:10A27000E80600208800002010B5FEF70BFF04461A
:10A28000012C02D101F022F80446012C14D100BFA8
:10A29000BF2080F31188BFF34F8FBFF36F8F00BFD4
:10A2A0004FF0FF3006490860012006490860002091
:10A2B0000549086000F08AF80448006810BD0000F5
:10A2C000A00000208C00002084000020A8000020B6
:10A2D00070B504460B48006805190B4800688542B4
:10A2E00009D1FFF74FFD09480068401C0749086085
:10A2F000FFF75AFD641E03480068204401490860C6
:10A3000070BD000084000020A0000020900000200C
:10A3100002480068401C014908607047AC000020FA
:10A3200070B52548006818B101202449086042E052
:10A3300000202249086000BF21480068046B4FF0EC
:10A34000A5362068B0F1A53F0BD16068B0F1A53FFC
:10A3500007D1A068B0F1A53F03D1E068B0F1A53FF7
:10A3600009D01748006800F13405294614480068F0
:10A37000FFF7B8FC00BF00BF00BF12480068B0FA8A
:10A3800080F0C0F11F0100BF01EB81020E4B03EB17
:10A39000820042685268426000F1080243689342BA
:10A3A00001D1C26842604268D268054B1A6000BFA2
:10A3B00000BF1846006870BDAC000020940000206B
:10A3C0007000002088000020E806002010B50A4830
:10A3D000006840F47F00084908600846006840F0C3
:10A3E0007F400860FFF716FD002004490860FAF777
:10A3F00099FE002010BD000020ED00E0E0000020EC
:10A4000010B500BFBF2080F31188BFF34F8FBFF39B
:10A410006F8F00BF00F04CFC18B14FF08050044922
:10A42000086000BF002080F3118800BF10BD00004D
:10A4300004ED00E02DE9F041044601260027224604
:10A440000021012000F007F805462846FEF772FFBC
:10A450002846BDE8F0812DE9F84305460E4617462B
:10A460000024F5B1601EB0FBF5F0B04219D305FB36
:10A4700006F010F1490F14D805FB06F909F1480060
:10A48000FFF750FA044664B1A04608F148080020DE
:10A4900084F846003B464246314628460094FEF783
:10A4A00058FF2046BDE8F8832DE9F84380460D4665
:10A4B00016461C46DDF820900027B8F1000F0FD09B
:10A4C00074B106B165B106B955B92746012087F8C0
:10A4D00046004B463246294640460097FEF739FF74
:10A4E0003846BDE8F88300002DE9F04105460E46E8
:10A4F00001272C46002C41D0E06B00283ED0B91E2D
:10A50000E06BB1FBF0F0216C884237D3FFF73AFCE7
:10A51000D4E90F12206801FB0200A0600020A063B4
:10A5200020686060E06B401E226C216800FB021115
:10A53000E160FF2084F8440084F845009EB920695A
:10A5400008B9012000E00020A8B904F1100000F0D3
:10A5500053FD80B14FF080500A490860BFF34F8F20
:10A56000BFF36F8F07E004F11000FFF7D5FB04F194
:10A570002400FFF7D1FBFFF717FC00E00027384667
:10A58000BDE8F08104ED00E02DE9FF4383B007460C
:10A5900088461D464FF000093C4600BFFFF7F2FB1E
:10A5A000A06BE16B884201D3022D28D12A46414697
:10A5B0002046FEF730FD0646606A08B9012000E03B
:10A5C000002068B904F1240000F016FD88B14FF0B6
:10A5D000805032490860BFF34F8FBFF36F8F08E0A0
:10A5E0003EB14FF080502D490860BFF34F8FBFF34D
:10A5F0006F8FFFF7D9FB012007B0BDE8F083059806
:10A6000018B9FFF7D1FB0020F6E7B9F1000F04D12C
:10A6100001A8FFF779FD4FF00109FFF7C5FBFFF730
:10A6200077FEFFF7AFFB94F94400401C10B90020FF
:10A6300084F8440094F94500401C10B9002084F8C7
:10A640004500FFF7B1FB05A901A800F087F9F0B9B3
:10A650002046FEF792FFA0B104F110000599FFF724
:10A6600065FD2046FFF71EF900F056FD002895D144
:10A670004FF0805009490860BFF34F8FBFF36F8FD1
:10A680008CE72046FFF70EF900F046FD86E72046EE
:10A69000FFF708F900F040FD0020ADE704ED00E011
:10A6A0002DE9F05F05460E462C4600BFBF21EFF3B3
:10A6B000118081F31188BFF34F8FBFF36F8F00BFFD
:10A6C0008046D4F838A0E06B504524D994F94590E1
:10A6D0000AF10100A06309F1010070B9606A08B9CC
:10A6E000012000E00020A0B904F1240000F084FC67
:10A6F00078B176B1012030600BE000BFFFF718FAA7
:10A700008346D94504D209F1010040B284F84500DE
:10A7100000BF012700E0002700BF88F3118800BFB9
:10A720003846BDE8F09F00002DE9F74183B00546AB
:10A730000F464FF000082C4600BFFFF723FBA66B27
:10A74000F6B139462046FEF751FC701EA063206921
:10A7500008B9012000E0002060B904F1100000F009
:10A760004BFC38B14FF080502F490860BFF34F8F3A
:10A77000BFF36F8FFFF718FB012006B0BDE8F08133
:10A78000059818B9FFF710FB0020F6E7B8F1000FA5
:10A7900004D101A8FFF7B8FC4FF00108FFF704FB54
:10A7A000FFF7B6FDFFF7EEFA94F94400401C10B92C
:10A7B000002084F8440094F94500401C10B90020A2
:10A7C00084F84500FFF7F0FA05A901A800F0C6F8E3
:10A7D000F0B92046FEF7C4FEA0B104F124000599AB
:10A7E000FFF7A4FC2046FFF75DF800F095FC002879
:10A7F000A3D14FF080500C490860BFF34F8FBFF3D7
:10A800006F8F9AE72046FFF74DF800F085FC94E73C
:10A810002046FFF747F800F07FFC2046FEF7A0FE39
:10A8200000288AD00020A8E704ED00E02DE9F341DC
:10A8300082B0054600272C46B84600BFFFF7A2FAB3
:10A84000A66BFEB1701EA063206810B9FFF7EAF88E
:10A85000A060206908B9012000E0002060B904F17F
:10A86000100000F0C9FB38B14FF080503A49086041
:10A87000BFF34F8FBFF36F8FFFF796FA012004B03D
:10A88000BDE8F081039818B9FFF78EFA0020F6E7CB
:10A890001FB96846FFF738FC0127FFF785FAFFF775
:10A8A00037FDFFF76FFA94F94400401C10B90020FF
:10A8B00084F8440094F94500401C10B9002084F845
:10A8C0004500FFF771FA03A9684600F047F840BB5E
:10A8D0002046FEF745FEF0B1206838B9FFF752FA7E
:10A8E000A06800F00FFB8046FFF75EFA04F1240039
:10A8F0000399FFF71BFC2046FEF7D4FF00F00CFC89
:10A9000000289BD14FF0805013490860BFF34F8F50
:10A91000BFF36F8F92E72046FEF7C4FF00F0FCFB09
:10A920008CE72046FEF7BEFF00F0F6FB2046FEF760
:10A9300017FE002882D0B8F1000F0BD0FFF722FAE3
:10A940002046FEF754FC06463146A068FFF726FC79
:10A95000FFF72AFA002092E704ED00E070B5064602
:10A960000C46FFF70FFA134802687068131A206844
:10A97000401C08B9002519E00F4930680968884271
:10A9800006D07068904203D80125002020600DE0B9
:10A990002068984207D92068C01A20603046FFF727
:10A9A000B3FB002502E0002020600125FFF7FCF941
:10A9B000284670BD84000020980000202DE9FC5F2F
:10A9C00006460F4690469946DDE90CAB4B4642469B
:10A9D00039463046CDE900ABFEF7C6FB054625B14A
:10A9E0002846FEF739FA012401E04FF0FF342046F3
:10A9F000BDE8FC9F2DE9F04F85B005460E46174691
:10AA00009846DDE90FABDDF838900020049004A8EB
:10AA100043463A4631468DE8000E03902846FEF73D
:10AA20007DFB044614B12046FEF716FA049805B0E3
:10AA3000BDE8F08F2DE9F047044688464FF0000945
:10AA4000FFF766FC16480668206800EB08052068DA
:10AA5000B04207D92068A8420BD9B54209D94FF0B6
:10AA6000010906E02068A84201D8B54201D94FF09B
:10AA700001092560B9F1000F03D0A81B0021FEF7E2
:10AA800085F900F049FB07463FB94FF08050054972
:10AA90000860BFF34F8FBFF36F8F4846BDE8F08764
:10AAA0008400002004ED00E02DE9F05F81460D46B2
:10AAB00016461F46DDF828A04FF0010B4C46FFF765
:10AAC00061F9BAF1000F05D004F14C0050F82500EF
:10AAD000CAF8000004F1500010F805800221415529
